:0C0000000C9443000C9400000C940000D1
:10000C000C9400000C9400000C9400000C94000064
:10001C000C9400000C9400000C9400000C94000054
:10002C000C947C030C9400000C9400000C940000C5
:10003C000C9400000C9400000C9400000C94000034
:10004C000C9400000C9400001027E80364000A00D4
:10005C000100001000011000010000000000000071
:10006C000000000000000000000000000000000084
:10007C0000000000000000000000F894EE27ECBB2C
:10008C00F1E0FBBFEBBFE5BF8DE0A2E0BB27ED933A
:10009C008A95E9F780E094E0A0E6ED930197E9F703
:1000AC00EFE5EDBFE4E0EEBFC0E6D1E00C94C10398
:1000BC00AA93E881ECB921960895BA93AA931A935E
:1000CC0010E0A981BA81EE27A10FBE1FEC91E030A0
:1000DC0069F0A981BA81EE27A10FBE1FAC91E8DFB0
:1000EC00A1E0B0E00E94F0051F5FEBCF18812396D2
:1000FC000895BA93AA93C098C198C298BE9ABF9A11
:10010C00C698C798DF98DE98DD98DC98C698C79893
:10011C0093989298A881B9811996AC91A13311F456
:10012C00DF9A01C0DF98A881B9811896AC91A133F0
:10013C0011F4DE9A01C0DE98A881B9811796AC91B2
:10014C00A13311F4DD9A01C0DD98A881B98116960E
:10015C00AC91A13311F4DC9A01C0DC98A881B9816F
:10016C001596AC91A13311F4C69A01C0C698A8811A
:10017C00B9811496AC91A13311F4C79A01C0C798F8
:10018C00A881B9811396AC91A13311F4939A01C053
:10019C009398A881B9811296AC91A13311F4929ADB
:1001AC0001C0929822960895C098C198C29AE4E42E
:1001BC00E883E9E4E983989B02C0E1E301C0E0E352
:1001CC00EA83999B02C0E1E301C0E0E3EB839A9BD5
:1001DC0002C0E1E301C0E0E3EC839B9B02C0E1E3DE
:1001EC0001C0E0E3ED839C9B02C0E1E301C0E0E3CE
:1001FC00EE839D9B02C0E1E301C0E0E3EF839E9B95
:10020C0002C0E1E301C0E0E3E8879F9B02C0E1E3A9
:10021C0001C0E0E3E987E1E2EA870E947A040895ED
:10022C00A6978CE0A6E1B0E0E6E6F0E00E947F063F
:10023C00C09AC19AC298BE98BF98C698C798E1E474
:10024C00E883E9E4E983ECE2EE83EB87E88B989BA7
:10025C0004C00E9481040E948604999B02C00E94E3
:10026C008F049A9B02C00E9499049B9B02C00E941F
:10027C00A3049C9B02C00E94AD049D9B02C00E94E3
:10028C00B7049E9B02C00E94C1049F9B02C00E94A7
:10029C00CB04B39B02C00E94D504B49B02C00E9445
:1002AC00DF040E94E904EA830E940D050E941205F6
:1002BC00EB830E941F05EC830E943E05ED830E9498
:1002CC004C05C09AC198C29A989B02C00E945605D0
:1002DC00999B02C00E948F049A9B02C00E949904B1
:1002EC009B9B02C00E94A3049C9B02C00E94AD0475
:1002FC009D9B02C00E94B7049E9B02C00E94C10439
:10030C009F9B02C00E94CB04B39B02C00E94D504E9
:10031C00B49B02C00E94DF040E94E904EF830E9498
:10032C005805E8870E941F05E9870E943E05EA8769
:10033C000E944C05C098C19AC29A989B02C00E9418
:10034C005605999B02C00E948F049A9B02C00E9482
:10035C0099049B9B02C00E94A3049C9B02C00E9418
:10036C00AD049D9B02C00E94B7049E9B02C00E94DC
:10037C00C1049F9B02C00E94CB04B39B02C00E948D
:10038C00D504B49B02C00E94DF04B59B02C00E943E
:10039C005A05B69B02C00E946405B79B02C00E941E
:1003AC006E05C99B02C00E947805CA9B02C00E94C0
:1003BC008205CB9B02C00E948C050E949605EC879F
:1003CC000E945805ED870E941F05EE870E943E058E
:1003DC00EF870E944C05C09AC19AC29A989B02C0A2
:1003EC000E945605999B02C00E948F049A9B02C0E2
:1003FC000E9499049B9B02C00E94A3049C9B02C078
:10040C000E94AD049D9B02C00E94B7049E9B02C03B
:10041C000E94C1049F9B02C00E94CB04B39B02C0EC
:10042C000E94D504B49B02C00E94DF04B59B02C09D
:10043C000E945A05B69B02C00E946405B79B02C07D
:10044C000E946E05C99B02C00E947805CA9B02C01F
:10045C000E948205CB9B02C00E948C050E949605CF
:10046C00E98B0E945805EA8B0E941F05EB8B0E94BA
:10047C003E05EC8BE1E2ED8BE1E3EE8BEFE2EF8BF3
:10048C000E947A0431C1BA93AA936E9784E1A0E0DA
:10049C00B0E0E2E7F0E00E947F060E94710600E007
:1004AC0010E020E030E040E050E0BE9ABF9AC698E1
:1004BC00C798ECA1FDA1E281F0E0F0979F01ECA1BF
:1004CC00FDA1E381F0E0F097AF01ECA1FDA1E48187
:1004DC00F0E0F097E88FF98FECA1FDA1E581F0E059
:1004EC00F097EE8BFF8BECA1FDA1E681F0E0F0978D
:1004FC00EC8BFD8BECA1FDA1E781F0E0F097EA8B92
:10050C00FB8BECA1FDA1E085F0E0F097E88BF98B7B
:10051C00ECA1FDA1E185F0E0F097EE87FF87FA01F1
:10052C000E94B705E88DF98D0E94BD05AE89BF8983
:10053C00EA0FFB1F0E9408060E94C405EA85FB8592
:10054C006C857D850E94C9050E94C405EA89FB89DA
:10055C000E94B705E889F9890E94BD05AE85BF8563
:10056C00EA0FFB1F0E9408060E94D805EE81FF814E
:10057C00688579850E94C9050E94D805C09AC198E2
:10058C00C29800E010E00A30E0E01E07ACF40E94D4
:10059C00DD05EA85FB850E94E505EC91E05DD00167
:1005AC00EC93EA85FB856C857D850E9403060E9491
:1005BC00C4050F5F1F4FE7CFAA8DA13311F4929A98
:1005CC0001C09298AB8DA13311F4939A01C093980A
:1005DC00AC8DA13311F4C79A01C0C798AD8DA1336E
:1005EC0011F4C69A01C0C698AE8DA13311F4DC9AF1
:1005FC0001C0DC98AF8DA13311F4DD9A01C0DD98F8
:10060C00A8A1A13311F4DE9A01C0DE98A9A1A133EF
:10061C0011F4DF9A01C0DF98AAA1A13311F4969AC4
:10062C0001C09698ABA1A13311F4979A01C0979889
:10063C00C098C19AC29800E010E00A30E0E01E07B2
:10064C00ACF40E94DD05EE81FF810E94E505EC9182
:10065C00E05DD001EC93EE81FF81688579850E9485
:10066C0003060E94D8050F5F1F4FE7CFAA8DA13359
:10067C0011F4929A01C09298AB8DA13311F4939A14
:10068C0001C09398AC8DA13311F4C79A01C0C798DF
:10069C00AD8DA13311F4C69A01C0C698AE8DA133AD
:1006AC0011F4DC9A01C0DC98AF8DA13311F4DD9A02
:1006BC0001C0DD98A8A1A13311F4DE9A01C0DE9827
:1006CC00A9A1A13311F4DF9A01C0DF98AAA1A1332B
:1006DC0011F4969A01C09698ABA1A13311F4979A94
:1006EC0001C097980E947806A6960895AA93EA935B
:1006FC00FA93EFB7EA93ECB1E0936A01A0916B0126
:10070C00A43441F4E091AF01F0E0E458FE4FA09125
:10071C006A01A083A0916B01A13441F4E091AF0177
:10072C00F0E0E357FE4FA0916A01A083A0916B010A
:10073C00A03541F4E091AF01F0E0E256FE4FA091FC
:10074C006A01A083E091AF01EF5FE093AF01E1504C
:10075C00F0E0E559FE4FA0916A01A083A091AF0192
:10076C00A23118F0E0E0E093AF01E991EFBFF9910D
:10077C00E991A9911895E0E0EABBEBBBE7BBE8BBBC
:10078C00E4BBE5BBE1BBE2BBE3BFE2BFECBFE2EA2B
:10079C00EFBDEAE1EEBDE0E0EDBDECBDE4E6E7BDAA
:1007AC00E0E0E6BDEBBDEABDE9BDE8BDE2BDE5BDFF
:1007BC00E4BDE3BDE9BFE5BFE4BFEBB9E8E9EAB9E5
:1007CC00E6E8E0BDE0E0E0BDE7E6E9B9E0E8E8B97D
:1007DC00E0E0E0BFE0E4E7B9E4E8E6B9E0E0E0BF80
:1007EC00EDB9E6BF7894B89AB99ABA9AC098C198FC
:1007FC00C2988A9A8B9A8C9A8D9A9298939894987C
:10080C009598D49AD59AD69AD79ADC98DD98DE9892
:10081C00DF98E091A001F0E0F0972F01E091A101A9
:10082C00F0E0F0973F01E091A201F0E0F0974F016A
:10083C00E091A301F0E0F0975F01E091A401F0E0FA
:10084C00F0976F01E091A501F0E0F097E093600163
:10085C00F0936101E091A601F0E0F097E093620162
:10086C00F0936301E091A701F0E0F097E09364014D
:10087C00F0936501F3010E94B705F4010E94BD05D8
:10088C00EA0DFB1DE0936601F0936701E0916001B6
:10089C00F09161010E94B705E0916201F091630152
:1008AC000E94BD05A0916401B0916501EA0FFB1F88
:1008BC00E0936801F0936901F0916601E0E0FBBD03
:1008CC00EABDF0916801E0E0F9BDE8BD6DDCA8DCA3
:1008DC00ADE8B1E0D8DDACE7B1E00BDCA4E6B0E00C
:1008EC000E94F00596CFFFCFDE010E946300AAE0C4
:1008FC00B0E00C94F005EA8DFB8D6C8D7D8D089528
:10090C00EF5FFF4F6F4F7F4FEA8FFB8F6C8F7D8FA9
:10091C000895F1DFEE5FFF4F6F4F7F4FEA8FFB8F34
:10092C006C8F7D8F0895E7DFEC5FFF4F6F4F7F4F2C
:10093C00EA8FFB8F6C8F7D8F0895DDDFE85FFF4FB3
:10094C006F4F7F4FEA8FFB8F6C8F7D8F0895D3DFB6
:10095C00E05FFF4F6F4F7F4FEA8FFB8F6C8F7D8F68
:10096C000895C9DFE05EFF4F6F4F7F4FEA8FFB8F1B
:10097C006C8F7D8F0895BFDFE05CFF4F6F4F7F4F13
:10098C00EA8FFB8F6C8F7D8F0895B5DFE058FF4F9A
:10099C006F4F7F4FEA8FFB8F6C8F7D8F0895ABDF8E
:1009AC00E050FF4F6F4F7F4FEA8FFB8F6C8F7D8F27
:1009BC000895A1DFE050FE4F6F4F7F4FEA8FFB8F02
:1009CC006C8F7D8F089597DFA4EFB1E080E090E00D
:1009DC000E941506DF01CB01EFEFF3E060E070E061
:1009EC000E943A06EE8BFF8B688F798FAE89BF8998
:1009FC00888D998DE8EEF3E060E070E00E943A0695
:100A0C00EAA3FBA36CA37DA3EAA1E05D0895AE89E4
:100A1C00BF89888D998D0895E4E6F0E060E070E080
:100A2C000E943A06EE8FFF8F68A379A3EE8DE05DEE
:100A3C000895EE8DFF8D68A179A1A4E6B0E080E069
:100A4C0090E00E941506E3DF0E94FA05AE8BBF8B87
:100A5C00888F998FDCDFEAE0F0E060E070E00E94C4
:100A6C003A06EE8FFF8F68A379A3EE8DE05D0895B3
:100A7C00CEDFEAE0F0E060E070E00E945F06EE8F0F
:100A8C00FF8F68A379A3EE8DE05D0895E0E0EE8F13
:100A9C00EF8FE8A3E9A3EA8FEB8FEC8FED8F08952E
:100AAC002ADF2ECFB4DFB8CF26DFE050FC4F6F4FDC
:100ABC007F4FEA8FFB8F6C8F7D8F08951CDFE0508A
:100ACC00F84F6F4F7F4FEA8FFB8F6C8F7D8F0895A0
:100ADC0012DFE050F04F6F4F7F4FEA8FFB8F6C8F20
:100AEC007D8F089508DFE050F04E6F4F7F4FEA8FF7
:100AFC00FB8F6C8F7D8F0895FEDEE050F04C6F4FB6
:100B0C007F4FEA8FFB8F6C8F7D8F0895F4DEE05062
:100B1C00F0486F4F7F4FEA8FFB8F6C8F7D8F08955E
:100B2C00EADEA4EFB1E080E090E00E941506DF0160
:100B3C00CB01EFEFFFEF60E070E00E943A06EE8B26
:100B4C00FF8B688F798F63DFE8EEF3E060E070E095
:100B5C000E943A06EAA3FBA36CA37DA3EAA1E05D85
:100B6C000895A4E6B0E00E943506BF010895AAE0FE
:100B7C00B0E00E943506E60FF71F0895EA87FB8761
:100B8C006C877D870895AFEFB3E080E090E00E9422
:100B9C001506DF01CB01E4EFF1E060E070E00E94AC
:100BAC003A060895EE83FF83688779870895F801E4
:100BBC00DE019496EE0FFF1FAE0FBF1F0895E1707C
:100BCC00F070ED93FC93F801DE015A96EA0FFB1FCF
:100BDC000F01EDCF109639F080EA9FE00197F1F705
:100BEC00A8951197C9F70895AE1BBF0B860B970BF1
:100BFC000895F195E195F040089576956795F795F0
:100C0C00E79508956F2F660F660B762F0895FA9F60
:100C1C00F02DEB9FF00DEA9FE02DF10D08957A9FDA
:100C2C00702D6B9F700DF89F700DE99F700D6A9F72
:100C3C00602D710DFB9F600D711DE89F600D711D86
:100C4C008827FA9FF02D610D781FEB9FF00D611D29
:100C5C00781FEA9FE02DF10D681F781F08952DD0A5
:100C6C00D6DF0EF4C6DF08953F934F935F930024B5
:100C7C0011244427552730E2AA0FBB1F881F991F48
:100C8C00001C111C441F551F0E1A1F0A460B570B34
:100C9C0028F40E0E1F1E461F571F01C0A1603A9567
:100CAC0059F7FD01BC01D001CA015F914F913F91F1
:100CBC000895DADFFD01BC010895E894F7FF02C046
:100CCC0098DF6894B7FF06C0A095B095119600F810
:100CDC00039400FA08955A934A933A932A931A93D9
:100CEC000A9308955D814C813B812A811981088189
:100CFC000895AC0FBD1F05900D928A95E1F70895EC
:00000001FF
